:020000040800F2
:10000000781B00203D3700084537000847370008B7
:10001000493700084B3700084D3700080000000042
:100020000000000000000000000000004F37000842
:10003000513700080000000053370008651B000816
:100040005737000857370008573700085737000858
:100050005737000857370008573700085737000848
:100060005737000857370008573700085737000838
:100070005737000857370008573700085737000828
:100080005737000857370008573700085737000818
:100090005737000857370008573700085737000808
:1000A00057370008573700085737000857370008F8
:1000B000573700086902000857370008573700080B
:1000C00057370008573700085737000857370008D8
:1000D00057370008573700085737000857370008C8
:1000E00057370008573700085737000800F002F864
:1000F00000F03AF80AA090E8000C82448344AAF188
:100100000107DA4501D100F02FF8AFF2090EBAE885
:100110000F0013F0010F18BFFB1A43F0010318473B
:100120007457000094570000103A24BF78C878C173
:10013000FAD8520724BF30C830C144BF04680C60ED
:10014000704700000023002400250026103A28BF35
:1001500078C1FBD8520728BF30C148BF0B60704739
:100160001FB51FBD10B510BD03F004FC1146FFF70D
:10017000F7FF00F0EFF803F022FC03B4FFF7F2FF03
:1001800003BC03F025FC0000F0B581B040F6B86573
:1001900001EB4114C2F2000505EB840101F180027C
:1001A0002121134653F8047D0139176001291A46AD
:1001B000F8D804F017FE45F824006FF0030045F26C
:1001C000E82100EB8400C0F6000105440E1800246D
:1001D000212700BF55F8040F56F8041F04F016FE3F
:1001E000214604F069FD013F0446F3D1204604F0A6
:1001F000C5FD01B0F0BD00BF2DE9F04740F6B830B5
:10020000C2F20000A0F1040A40F6B820C2F20000D9
:1002100042F6EA6842F2FB19051F0024C5F2444881
:10022000C4F21909A0B204F055FA42464B4604F054
:1002300065FA00224FF07E5304F060FA06460F463E
:1002400003F002FF03F0C4FF45F8040F30463946BF
:1002500003F048FF03F0BCFF0134402C4AF8040FC0
:10026000E0D1BDE8F08700BF70B53425C4F20005C9
:1002700005F573742046012103F050FA002808BFE9
:1002800070BD40F6AE20C2F20000018840F6B222F6
:1002900040888908C2F20002118041F26C51800846
:1002A000C2F20001088040F6AC20C2F200000178E2
:1002B0000131CBB2022B017040D341F26646C2F24B
:1002C00000063388C3BB41F2644EC2F2000E1388AD
:1002D000BEF8002041F26A5C511CAEF8001040F6F6
:1002E000AC01C2F2000141F82230C2F2000CBCF8AD
:1002F0000010B1B141F26853C2F20003198841F213
:100300006842C2F2000232F81110298019880131C6
:1003100019801988802906D300211980ACF80010B3
:1003200001E000212980BEF80010802904D30121BA
:1003300031800021AEF8001000210170204601211B
:10034000BDE8704003F0F6B93421C4F20001088022
:10035000704700BF88B040F6AE20C2F20000022114
:1003600000F03EF902200121012402F0D3F940F20D
:100370000045C4F2000540F2FF3601A92846019469
:10038000029602F02FFB28460121012202F03EFFD7
:100390002846012102F024FF1D20C0F20010059024
:1003A00005A801F029FD0120012102F0B3F905A9FA
:1003B0004FF08040CDE9054602F014FB4FF080403D
:1003C000012102F00DFF6020C0F201000190002425
:1003D00001A94FF08040CDF80A4002F059FB4FF0E0
:1003E0008040082103F05CF80420012102F086F926
:1003F0000120C1F60200009005F58230694601F047
:1004000023FF042000F090FC40F20405C2F2000536
:10041000E0B2294601F076FB0134082C05F108050D
:10042000F6D140F6B830C2F20000A0F1040A40F65E
:10043000B820C2F2000042F6EA6842F2FB19061F39
:100440000024C5F24448C4F2190900BFA0B204F068
:1004500041F942464B4604F051F900224FF07E53D9
:1004600004F04CF907460D4603F0EEFD03F0B0FE34
:1004700046F8040F3846294603F034FE03F0A8FE80
:100480000134402C4AF8040FE0D141F2664140F6B5
:10049000AC0640F2AC2940F2AC4440F6B85B40F602
:1004A000B84A41F26845C2F20001C2F20006C2F247
:1004B0000009C2F200044FF00008C2F2000BC2F2C1
:1004C000000AC2F2000509E041F26641C2F20001F1
:1004D00040F2AC44A1F80080C2F200040888002871
:1004E000FCD040F6AE220020C2F2000232F810101A
:1004F000062913D2002800F10100F7D06FF00100A7
:1005000029180230FE28A1F80280F9D141F26A5080
:10051000C2F20000A0F80080D6E700BF00F016FB92
:100520004FF000086FF00705002700BF06EB4700FB
:10053000406809EB47014968404301FB010004F0B2
:10054000B2F803F01FFE04F07FF8E119C2094A80F7
:10055000810A4FF0200318BF05EBD013B8EBD02F62
:100560000BEB070018BF0723002918BF07224380A1
:100570000AEB07000237202F4280D7D140F2AC624D
:1005800040F2AC0330464946C2F20002C2F2000318
:1005900000F062F941F268450127C2F200054FF010
:1005A000000810E0791EC2B2C8B2002101F0C4FAFE
:1005B0001AF81720781EC0B2012101F0BDFA0137E8
:1005C000112F3FF481AF3BF817002028EAD1781EA5
:1005D000C0B2002100F026FF202001F0F1F9E7E78A
:1005E0002DE9F04192B08846064642F200440420CC
:1005F0000121C4F2010402F081F80620ADF83000B8
:100600000025A4F5E0500CA98DF8335001F01CFE34
:100610004FF40070012102F071F80120012102F075
:1006200061F80827C4F20207384601F0E9FA42F2FD
:100630004C40C4F20100CDE90106802006904FF441
:10064000807007904FF480600890202009904FF44C
:100650000050CDE90A0501A93846CDE903580595B2
:1006600001F054FB3846012101F07AFB4FF4602081
:100670000F9002208DF8440040F20110ADF83800D0
:100680000DA9204610950D9501F030FC2046012162
:100690000122012301F0B0FC2046022102220123A5
:1006A00001F0AAFC2046012101F05AFC204601215C
:1006B00001F04EFC204601F067FC00BF204601F02F
:1006C00069FC0028FAD1204601F068FC204601F0C0
:1006D0006BFC0028FAD12046012101F069FC12B020
:1006E000BDE8F08110B584B002200121012402F0A0
:1006F00011F8019440F2004440F2FF30C4F20004CB
:10070000029001A9204602F06DF920460121012244
:1007100002F07CFD2046012102F062FD1D20C0F2A6
:1007200000100090684601F067FB04B010BD00BFE8
:1007300010B588B001200121012401F0EBFF40F247
:10074000FF30069005A94FF08040059402F04AF969
:100750004FF08040012102F043FD6020C0F2010013
:1007600001900020CDF80A0001A94FF0804002F06E
:100770008FF94FF08040082102F092FE0420012101
:1007800001F0BCFF0120C1F60200009040F600001D
:10079000C4F20100694601F057FD08B010BD00BF6A
:1007A000B0B5042000F0C0FA40F204040025C2F203
:1007B000000400BFE8B2214601F0A4F90135082D7C
:1007C00004F10804F6D1B0BD2DE9F04F81B040F638
:1007D000AC0940F2AC2A40F2AC4B40F6B85540F6BA
:1007E000B8464FF00008C2F20009C2F2000AC2F295
:1007F000000B6FF00704C2F20005C2F200060027EA
:1008000009EB470040680AEB47014968404301FB98
:10081000010003F048FF03F0B5FC03F015FF0BEBFC
:100820000701C2094A80810A4FF0200318BF04EB78
:10083000D013B8EBD02F05EB070018BF0723002912
:1008400018BF07224380F0190237202F4280D7D1EA
:1008500001B0BDE8F08F00BF2DE9F04F8DB0984694
:1008600091460F4682464FF0000B012403E000BF83
:100870000134802C2FD01FFA8BF0402802D2402167
:1008800009E000BF402200BF801A510880B2B0EBDF
:10089000520F0A46F8D200EB010B1FFA8BF6A64264
:1008A000E6D95AF8240004F085FA5AF826104AF8D6
:1008B000241004F063FA4AF8260057F824003D4655
:1008C00004F078FA57F8261047F8241004F056FA86
:1008D00047F82600CCE7CDF810A0CDE900984FF6F8
:1008E000FC76DDF81080C0F203060121079704E0D2
:1008F00002990131082900F09C80012000FA01F2E0
:1009000090B243080291F3D08021B1FBF0F00021B6
:1009100003900120012B88BF18460590CDE90832CD
:1009200005E000BF0699059801318142E0D07F299A
:100930000691F7D80398DDF818B040F6B83100FBFF
:100940000BF0C2F2000151F8205040F6B821C2F27B
:10095000000151F82000CDE90B0585F000400A9018
:100960000BEB03001FFA80F958F8290004F022FA73
:1009700057F829100546084604F01CFA3746064683
:100980000A98314604F042FADDF82CA0044650469D
:10099000294604F03BFA214604F08EF904460C98EF
:1009A000294604F033FA054650463146DDF81CA0CE
:1009B0003E4604F02BFA294604F07EF907EA8B053F
:1009C00058F805100746084604F0F4F9214604F0EB
:1009D000E9FA04F0D3F948F829005AF8050004F0C0
:1009E000E9F9394604F0DEFA04F0C8F94AF82900BA
:1009F00058F8050004F0DEF90146204604F05CF9E1
:100A000004F0BCF948F805005AF8050004F0D2F9E2
:100A10000146384604F050F904F0B0F9DDE9083237
:100A2000574693441FFA8BF180294AF8050097D363
:100A300078E740F2AC5841F26849DDE9006A049D6C
:100A40000024C2F2000840F2FF3BC2F2000900BFDE
:100A500055F8140004F0AEF94FF0705104F0D6F9D7
:100A600004F08CF946F8140057F8140004F0A2F9C9
:100A70004FF0705104F0CAF904F080F94AF81400FC
:100A800056F81410494300FB001003F00CFE03F06D
:100A900079FB03F0D9FD584528BF584628F80400D3
:100AA00029F804000234B4F5807FD1D141F26A50B4
:100AB000C2F20000012101800DB0BDE8F08F00BF3F
:100AC00070B540F6B85540F6B8460124C2F20005AC
:100AD000C2F2000611E000BF611EC2B2C8B200211E
:100AE00001F02AF816F81420601EC0B2012101F0AE
:100AF00023F80134112C08BF70BD35F814002028EC
:100B0000EAD1601EC0B2002100F08CFC202000F071
:100B100057FFE7E770B542F20045C4F2010504460D
:100B20002846012101F044FA002600BF2846022190
:100B300001F048FB0028F9D0284601F097FA24F884
:100B400016000136022E08BF70BDEFE72DE9F04F09
:100B500089B040F2AC2AC2F2000A50464FF400714C
:100B600002F0CBFE40F6AC064FF000080124C2F2C2
:100B7000000602E00134802C2FD01FFA88F04028B4
:100B800002D2402109E000BF402200BF801A510874
:100B900080B2B0EB520F0A46F8D200EB01081FFA00
:100BA00088F5A542E6D956F8240004F003F956F872
:100BB000251046F8241004F0E1F85AF8241046F8FD
:100BC0002500084604F0F6F85AF825104AF82410D3
:100BD00004F0D4F84AF82500CCE7012105E000BF75
:100BE00000990131082900F09B80012000FA01F2F0
:100BF00090B245080091F3D08021B1FBF0F00021C4
:100C000001900120012D88BF28460290CDE90452B1
:100C100005E000BF0399029801318142E0D07F29AD
:100C20000391F7D80198DDF80C8040F6B83100FB4D
:100C300008F0C2F2000151F8203040F6B821C2F2AB
:100C4000000151F82000CDE9070383F00040069031
:100C500008EB05001FFA80F956F8290004F0AAF8FD
:100C60005AF829100546084604F0A4F804460898E6
:100C7000214604F0CBF8DDF81CB00746584629465B
:100C800004F0C4F8394604F017F8074606982946D8
:100C900004F0BCF805465846214604F0B7F829464A
:100CA00004F00AF84FF6FC71C0F2030101EA88046F
:100CB00031590546084604F07DF8394604F072F9CA
:100CC00004F05CF85AF8041046F82900084604F0CD
:100CD00071F8294604F066F904F050F831594AF8E1
:100CE0002900084604F066F80146384603F0E4FFA0
:100CF00004F044F85AF804103051084604F05AF849
:100D00000146284603F0D8FF04F038F8DDE9045224
:100D10004AF8040090441FFA88F1802998D379E7B3
:100D200009B0BDE8F08F00002DE9F04F83B00290CC
:100D300000F024FF0820012101F0E0FC0420012143
:100D400001F0DCFC40F2A80A47F2000040F614076C
:100D5000C2F2000AC1F20200C4F20107CAF80000A0
:100D600007F57B70514601F06FFA40F60070C1F252
:100D70000200A7F11409CAF800008046484651460F
:100D8000CDF8049001F060FA4FF47A5000F01CFFA7
:100D90004FF400744FF4807B4FF48045022047F8F5
:100DA000044C47F804BCC7F8FC5300F00DFF40F6B4
:100DB0001446C4F2010641F28830356000F004FFA9
:100DC0000220C7F8FC5300F0FFFE4020356000F021
:100DD000FBFE0220C7F8FC5300F0F6FE4020356011
:100DE00000F0F2FE022047F8044CC7F800B0C7F844
:100DF000FC5300F0E9FE4020356000F0E5FE00F015
:100E0000A1F94FF4005030604FF4805030604846F4
:100E10005146CAF8008001F017FA4FF400684FF409
:100E200080690220C7F80080C7F800903C60C7F8CE
:100E300000B047F8044CC7F8FC5300F0C5FE022090
:100E40003560C7F80080C7F800903C60C7F800B074
:100E500047F8048CC7F8FC5300F0B6FE356047F83D
:100E6000048C47F8049C47F8044C47F804BC00F095
:100E700069F94FF4005030604FF48050306040F614
:100E80000070C1F202005146CAF80000DDF804A06B
:100E9000504601F0D9F90220C7F80080C7F8009049
:100EA0003C60C7F800B0C7F8FC5300F08DFE02208C
:100EB0003560C7F80080C7F800903C60C7F800B004
:100EC00047F8048CC7F8FC5300F07EFE356047F805
:100ED000048C47F8049C47F8044C47F804BC00F025
:100EE00031F94FF4005030604FF48050306040F2E0
:100EF000A80140F60070C2F20001C1F202000860D1
:100F0000504601F0A1F90220C7F80080C7F8009010
:100F10003C60C7F800B0C7F8FC5300F055FE022053
:100F20003560C7F80080C7F800903C60C7F800B093
:100F300047F804BCC7F8FC5300F046FE356047F89C
:100F4000048C47F8049C47F8044C47F804BC00F0B4
:100F5000F9F84FF4005030604FF48050306040F6A4
:100F6000007040F2A801C1F20200C2F20001086064
:100F7000504601F069F90220C7F80080C7F80090D8
:100F80003C60C7F800B0C7F8FC5300F01DFE02201B
:100F90003560C7F80080C7F800903C60C7F800B023
:100FA00047F8049C47F8044CC7F8FC5300F00CFECB
:100FB000356047F8048C47F8049C47F8044C47F820
:100FC00004BC40F6B4200299C2F20000017041F066
:100FD000080400F0B7F82046002103B0BDE8F04F48
:100FE00046E100BF10B5044600F0ACF820460021F1
:100FF000BDE810403CE100BF2DE9F04700F0A2F849
:1010000040F61448C4F201084FF40050C8F800003C
:101010004FF48050C8F8000040F2A80140F600707C
:1010200040F61405C2F20001C1F20200C4F201054B
:101030000860A5F1140001F007F94FF400694FF4BE
:10104000806A4FF400744FF480764FF4804702209A
:10105000C5F80090C5F800A02C602E60C5F8FC73A0
:1010600000F0B2FD0220C8F80070C5F80090C5F885
:1010700000A02C602E6045F8046CC5F8FC7300F0ED
:10108000A3FDC8F8007045F8049C45F804AC45F889
:10109000044C45F8046CBDE8F08700BF2DE9F0472B
:1010A00000F050F840F61448C4F201084FF4005024
:1010B000C8F800004FF48050C8F8000040F2A801C2
:1010C00040F6007040F61405C2F20001C1F20200C1
:1010D000C4F201050860A5F1140001F0B5F84FF461
:1010E00000694FF480674FF400744FF4807A4FF436
:1010F00080460220C5F800902F602C60C5F800A043
:10110000C5F8FC6300F060FD0220C8F80060C5F877
:1011100000902F602C60C5F800A045F8047C45F8CD
:10112000044CC5F8FC6300F04FFDC8F8006045F8BA
:10113000049C45F8047C45F8044C45F804ACBDE833
:10114000F08700BF2DE9F04F81B040F6080740F668
:10115000144BC4F2010740F2A804C4F2010B4FF48F
:1011600000584FF4805AC2F20004A7F108054FF46A
:10117000804600BF40F60070C4F60200C7F808843D
:10118000CBF800A020602846214601F05DF802203F
:10119000C7F8086400F018FD386838683868D7F870
:1011A00000900220CBF8006000F00EFD0220C7F88E
:1011B000086400F009FD38683868386838685FEA04
:1011C0000950CBF80060D5D404204FF0040800F09B
:1011D000FBFC4FF40050C7F808044FF48050CBF8E4
:1011E000000040F60070C4F6020020602846214648
:1011F00001F02AF84FF480440220C7F80844022581
:1012000000F0E2FC3868102101EA10103968202251
:1012100002EA111108443968402202EA1111084417
:1012200039686FF07F0202EA111146180220CBF8EC
:10123000004000F0C9FC0220C7F8084400F0C4FCDC
:1012400038683968C0F300203A68304405EA112153
:10125000084408EA122108443968082202EA1121E8
:101260000843C0B2CBF8004001B0BDE8F08F00BF2A
:10127000F0B581B040F614460446C4F201064FF4BE
:10128000005040F6100530604FF48050C4F2010564
:1012900000290CBF3060C5F8000440F2A80140F6F8
:1012A0000070C2F20001C1F202000860A5F1100056
:1012B00000F0CAFF4FF400604FF48061686069601D
:1012C0004FF40071696061B2B1F1FF3F4FF480717A
:1012D0006960D8BF2860600644BF4FF48060286012
:1012E000A00644BF4FF400702860E00644BF4FF4EE
:1012F000807028604FF480470220C5F8007400F029
:1013000063FC4FF400604FF480613760686069608F
:101310004FF4007169604FF480712207696048BF23
:101320002860600744BF4FF480602860A00744BF76
:101330004FF400702860E0071CBF4FF480702860F5
:101340004FF480440220C5F8004400F03DFC4FF407
:101350000060346028604FF4806028604FF40070B3
:1013600028604FF48070286001B0F0BD10B50446CD
:10137000FFF7E8FE20460121BDE8104078E700BFF6
:101380002DE9F047FFF7DEFE40F61448C4F20108ED
:101390004FF40050C8F800004FF48050C8F8000027
:1013A00040F2A80140F6007040F61405C2F20001B8
:1013B000C1F20200C4F201050860A5F1140000F0BA
:1013C00043FF4FF400694FF4806A4FF400744FF408
:1013D00080764FF480470220C5F80090C5F800A041
:1013E0002C602E60C5F8FC7300F0EEFB0220C8F8FC
:1013F0000070C5F80090C5F800A02C602E6045F87C
:10140000044CC5F8FC7300F0DFFBC8F8007045F829
:10141000049C45F804AC45F8044C45F8046CBDE860
:10142000F08700BF10B5002918BF403040F080049D
:10143000FFF788FEE0B20021BDE8104018E700BFCA
:1014400080E600BF2DE9F047FFF77CFE40F6144828
:10145000C4F201084FF40050C8F800004FF4805067
:10146000C8F8000040F2A80140F6007040F61405EC
:10147000C2F20001C1F20200C4F201050860A5F148
:10148000140000F0E1FE4FF400694FF480674FF460
:10149000007A4FF480764FF480440220C5F8009023
:1014A0002F60C5F800A02E60C5F8FC4300F08CFB4F
:1014B0000220C8F80040C5F800902F60C5F800A0D1
:1014C0002E6045F8047CC5F8FC4300F07DFBC8F8AD
:1014D000004045F8049C45F8047C45F804AC45F808
:1014E000046CBDE8F08700BF2DE9F047FFF72AFE46
:1014F00040F61448C4F201084FF40050C8F8000048
:101500004FF48050C8F8000040F2A80140F6007087
:1015100040F61405C2F20001C1F20200C4F2010556
:101520000860A5F1140000F08FFE4FF400694FF43D
:10153000806A4FF400744FF480764FF480470220A5
:10154000C5F80090C5F800A02C602E60C5F8FC73AB
:1015500000F03AFB0220C8F80070C5F80090C5F80A
:1015600000A02C602E6045F804AC45F8044C45F80A
:10157000046CC5F8FC7300F027FBC8F8007045F850
:10158000049C45F804AC45F8044C45F8046CBDE8EF
:10159000F08700BF2DE9F047FFF7D4FD40F614486F
:1015A000C4F201084FF40050C8F800004FF4805016
:1015B000C8F8000040F2A80140F6007040F614059B
:1015C000C2F20001C1F20200C4F201050860A5F1F7
:1015D000140000F039FE4FF400694FF480674FF4B7
:1015E000007A4FF480764FF480440220C5F80090D2
:1015F0002F60C5F800A02E60C5F8FC4300F0E4FAA7
:101600000220C8F80040C5F800902F60C5F800A07F
:101610002E6045F8047C45F8046CC5F8FC4300F0E6
:10162000D3FAC8F8004045F8049C45F8047C45F816
:1016300004AC45F8046CBDE8F08700BF10B540F677
:10164000B420C2F20000017841F00402027041F0BF
:101650000C04FFF777FDE0B20021BDE8104007E67B
:1016600010B540F6B420C2F20000017801F0FB0290
:10167000027041F00804FFF765FD04F0FB00002153
:10168000BDE81040F4E500BF10B540F6B420C2F24A
:101690000000017841F00202027041F00A04FFF7F5
:1016A00051FDE0B20021BDE81040E1E510B540F683
:1016B000B420C2F20000017801F0FD02027041F096
:1016C0000804FFF73FFD04F0FD000021BDE81040D5
:1016D000CEE500BF10B540F6B420C2F2000001789C
:1016E00041F00102027041F00904FFF72BFDE0B266
:1016F0000021BDE81040BBE510B540F6B420C2F2B1
:101700000000017801F0FE02027041F00804FFF7CA
:1017100019FD04F0FE000021BDE81040A8E500BF5F
:101720002DE9F047FFF70EFD40F61448C4F201081A
:101730004FF40050C8F800004FF48050C8F8000083
:1017400040F2A80140F6007040F61405C2F2000114
:10175000C1F20200C4F201050860A5F1140000F016
:1017600073FD4FF400664FF480694FF4007A4FF434
:1017700080774FF4804402202E60C5F80090C5F8B1
:1017800000A02F6045F8047CC5F8FC4300F01CFA6B
:101790000220C8F800402E60C5F80090C5F800A0EF
:1017A0002F6045F8046CC5F8FC4300F00DFAC8F84A
:1017B000004045F8046C45F8049C45F804AC45F835
:1017C000047CBDE8F08700BF2DE9F047FFF7BAFCC5
:1017D00040F61448C4F201084FF40050C8F8000065
:1017E0004FF48050C8F8000040F2A80140F60070A5
:1017F00040F61405C2F20001C1F20200C4F2010574
:101800000860A5F1140000F01FFD4FF4006A4FF4CA
:1018100080674FF400794FF480744FF480460220C3
:10182000C5F800A02F60C5F800902C6045F8044C66
:10183000C5F8FC6300F0C8F90220C8F80060C5F8DC
:1018400000A02F60C5F800902C6045F804AC45F866
:10185000047CC5F8FC6300F0B7F9C8F8006045F8EF
:1018600004AC45F8047C45F8049C45F8044CBDE8FC
:10187000F08700BF2DE9F047FFF764FC40F61448FD
:10188000C4F201084FF40050C8F800004FF4805033
:10189000C8F8000040F2A80140F6007040F61405B8
:1018A000C2F20001C1F20200C4F201050860A5F114
:1018B000140000F0C9FC4FF400694FF4806A4FF443
:1018C00000744FF480764FF480470220C5F80090F2
:1018D000C5F800A02C602E6045F8046CC5F8FC73B8
:1018E00000F072F90220C8F80070C5F80090C5F841
:1018F00000A02C602E60C5F8FC7300F065F9C8F8F4
:10190000007045F8049C45F804AC45F8044C45F8D3
:10191000046CBDE8F08700BF2DE9F047FFF712FC2B
:1019200040F61448C4F201084FF40050C8F8000013
:101930004FF48050C8F8000040F2A80140F6007053
:1019400040F61405C2F20001C1F20200C4F2010522
:101950000860A5F1140000F077FC4FF400694FF423
:1019600080674FF4007A4FF480764FF48044022071
:10197000C5F800902F60C5F800A02E6045F8046CF3
:10198000C5F8FC4300F020F90220C8F80040C5F873
:1019900000902F60C5F800A02E6045F8047CC5F8C3
:1019A000FC4300F011F9C8F8004045F8049C45F8E4
:1019B000047C45F804AC45F8046CBDE8F08700BF32
:1019C0002DE9F04F81B00446FFF7BCFB0A2C054619
:1019D00007D1FFF7B7FB8020402D38BFC020002182
:1019E0007DE040F6144840F61407C4F20108502D7B
:1019F000C4F2010725D0102D6DD14FF40050C8F866
:101A000000004FF48050C8F8000040F2A80140F6F2
:101A10000070C2F20001C1F202000860A7F11400D8
:101A200000F012FC4FF400614FF480604FF400723C
:101A3000396038603A604FF480723A6047F8041CAD
:101A400020E04FF40050C8F800004FF48050C8F870
:101A5000000040F2A80140F60070C2F20001C1F29D
:101A600002000860A7F1140000F0EEFB4FF40060E4
:101A70004FF48061386039604FF4007139604FF481
:101A80008071396047F8040C4FF480450220C7F894
:101A9000FC5300F099F84FF400694FF4806A4FF45A
:101AA000007B4FF480760220C8F80050C7F8009001
:101AB000C7F800A0C7F800B03E60C7F8FC5300F0BC
:101AC00083F8C8F8005047F8049C47F804AC47F87E
:101AD00004BC47F8046CFFF735FB2046012101B038
:101AE000BDE8F04FFFF7C4BB10B50178002908BF6F
:101AF00010BD441EC8B2FFF763FFA178013400296E
:101B0000F8D110BD70B540250C4660F3C505FFF750
:101B100019FB28460021FFF7ABFB651E082600BF16
:101B200015F8014FFFF70EFB20460121FFF7A0FB40
:101B3000013EF5D170BD00BFB0B51446002918BFF5
:101B4000403040F08005FFF7FDFAE8B20021FFF7D2
:101B50008FFBFFF7F7FA20460121BDE8B040FFF701
:101B600087BB000041F27050C2F2000001680029FA
:101B700008BF7047016801390160704780B501F006
:101B800085FE40F20000C2F2000000684DF683615D
:101B9000C4F21B31A0FB01014FF0FF3000EB91417B
:101BA0000020B0EB116F18BF80BD4EF21002CEF2D4
:101BB000000251604EF62351CEF20001F0230B706B
:101BC00090600720106080BD41F27051C2F20001A8
:101BD000086000BF08680028FCD1704770B141F26E
:101BE0007051C2F200014FF47A7202E0013808BF6E
:101BF00070470A600B68002BFCD1F7E770470000C4
:101C000002684FF6FE731A407F230421C4F20203D8
:101C1000C4F20201026000229842026042608260C7
:101C2000C26016DC4322C4F2020290422CDC08227D
:101C3000C4F20202904251D01C22C4F2020290422D
:101C40004ED03022C4F2020290425ED14FF4706056
:101C500058E040F22F42C4F20202904226DC802279
:101C6000C4F2020290423DD040F20842C4F20202A5
:101C700090423AD040F21C42C4F20202904244D157
:101C800001F58061F0203DE04422C4F2020290425E
:101C900036D05822C4F2020290421CD06C22C4F208
:101CA0000202904231D14FF470002BE040F23042FA
:101CB000C4F2020290421CD040F24442C4F202023A
:101CC00090421BD040F25842C4F20202904218BF28
:101CD000704701F580614FF4702013E00F2011E090
:101CE000F0200FE04FF070600CE001F580610F20F4
:101CF00008E001F580614FF4706003E001F5806158
:101D00004FF470400A681043086070472DE9F047AF
:101D1000026847F6F073D1E9026A9A4301F11007AD
:101D2000B0CF01F11C0E3243D1E900899EE80A5080
:101D30001A4322432A433A43114341EA0C0141EA40
:101D40000E010160C0F804A0C0F80880C0F80C9033
:101D5000BDE8F08780B52C2101F0CFFD80BD00BF2C
:101D600002684FF6FE7C42F00103002908BF02EA38
:101D70000C030360704700BF002A02680CBF22EA10
:101D8000010111430160704741607047406880B2B3
:101D9000704700BF0022010FC4F2020261F38A22E1
:101DA0001168084018BF0120704700BF0422010FCE
:101DB000C4F2020261F38A22106070470022010F10
:101DC000C4F2020261F38A221168084018BF0120A0
:101DD000704700BF0422010FC4F2020261F38A229D
:101DE0001060704740F080604EF60C5140F0FD707E
:101DF000CEF200010860704710B5C17800294EF29C
:101E00000011CEF200011AD04EF60C52CEF20002B2
:101E10001268072323EA12220F23C2F1040C23FACB
:101E200002F24378847890F800E003FA0CF3224041
:101E30001A43120101EB0E0383F8002300E0803106
:101E40000078012300F01F0203FA02F2C0F34210EF
:101E500041F8202010BD00BF4FF68072C1F6FF721E
:101E6000114008434EF60851CEF200010860704759
:101E700000294EF61051CEF200010A680CBF22EA8A
:101E800000001043086070474EF21001CEF20001CE
:101E90000A68042822F0040208BF04320A6070476E
:101EA00010B542F20041C4F2010188420FD043F65E
:101EB0000041C4F2010188420CD042F60001C4F294
:101EC0000101884218BF10BD4FF4806404E04FF454
:101ED000007401E04FF400442046012100F026FC8C
:101EE00020460021BDE8104000F020BC80B54268CB
:101EF0004FF6FF63CFF6F07302EA030C0B680A7922
:101F000043EA0C0343EA0222426082684FF2FD7307
:101F1000CFF6F17302EA030CD1E902E24B7942EA0F
:101F20000C0242EA0E0242EA43028260C26A097C63
:101F300022F470020139C9B242EA0151C16280BD86
:101F4000002101608180C0E9021101210174704704
:101F50008268002922F0010218BF013282607047B6
:101F60008268002922F4807218BF02F580728260B4
:101F7000704700BFC9B2002A42680CBF22EA0101C3
:101F800011434160704700BF816841F008018160E2
:101F9000704700BF8068C0F3C0007047816841F09F
:101FA00004018160704700BF8068C0F38000704703
:101FB0008268002922F4A00218BF02F5A002826004
:101FC000704700BF8068C0F38050704742684EF28F
:101FD0000003CFF6FF7322F4604203EB413111435B
:101FE000416070474268002922F4006218BF02F580
:101FF00000624260704700BFB0B501EB410C4FF08A
:10200000100E092988BFACF11E0C88BF4FF00C0ED2
:1020100050F80E40072505FA0CF5AC4303FA0CF313
:10202000234340F80E30062A02EB820303D83430F3
:102030006FF0040207E00C2A87BF2C306FF04002DB
:1020400030306FF022021A4403681F259540AB43DD
:10205000914019430160B0BD8268002922F48012CA
:1020600018BF02F580128260704700BFC06C80B25A
:10207000704700BF42F24C40C4F201000068704754
:102080004268002922F4806218BF02F58062426033
:10209000704700BF4268002922F4805218BF02F541
:1020A00080524260704700BF826822F4E0421143D0
:1020B000816070478268002922F4004218BF02F54F
:1020C00000428260704700BF8268002922F4021239
:1020D00018BF02F502128260704700BF8068C0F32B
:1020E00040507047B0B501EB410C4FF0100E09297C
:1020F00088BFACF11E0C88BF4FF00C0E50F80E409C
:10210000072505FA0CF5AC4303FA0CF3234340F81A
:102110000E30836BFC2565EA13552A440332D2B294
:1021200002EB82021F259540AB4391401943816326
:10213000B0BD00BF826B0023CFF6F07322F44012D3
:1021400003EB015111438163704700BF81B000234D
:10215000009300900098084400900098026001B03D
:10216000704700BF81B000220092009000980844A0
:10217000283000900098006880B201B0704700BF1E
:1021800042684FF6FF53CFF63F731A401143416048
:10219000704700BF41628262704700BF426822F010
:1021A0001F0211434160704742F20841C4F201012D
:1021B0000A68002822F4000218BF02F500020A6033
:1021C000704700BF0068084018BF0120704700BF7B
:1021D000C9430160704700BF426800680A4000EAD6
:1021E0001120D2B2002818BF0120002A18BF0122F6
:1021F000104070476FEA112101607047A0F18040E4
:10220000A0F584304FEAB020062888BF704710B58B
:1022100045F2A821C0F6000151F8204001212046D6
:1022200000F084FA20460021BDE8104000F07EBA9C
:1022300080B50120012100F079FA01200021BDE8DC
:10224000804000F073BA00BF2DE9F047CA7802F071
:102250000F0CD30644BF8B784CEA030C09880B069D
:1022600025D082465AF8144B00F1100E00254FF08D
:1022700001094FF00F08002706E000BF1E6001377C
:10228000082F05F1040511D009FA07F60E42F6D021
:1022900008FA05F324EA03030CFA05F41C43282A80
:1022A0005346EBD0482AEAD17346E7E70460B1F51C
:1022B000807F38BFBDE8F087436800F1100E00F161
:1022C000140900254FF4807A4FF00F08002705E02D
:1022D00034600137082F05F1040512D00AFA07F41B
:1022E00004EA0106A642F4D108FA05F6B3430CFA53
:1022F00005F63343282A4E46EAD0482AE9D17646E5
:10230000E6E74360BDE8F0874FF6FF71C0F2024197
:10231000016070478068084018BF0120704700BF07
:10232000806880B2704700BFC068084018BF0120B5
:10233000704700BFC06880B2704700BF016170473E
:10234000416170471023002A08BF1423C150704711
:10235000C160704701F5803282618161826181696B
:102360008069704740F2000CC4F2010CDCF80030C8
:102370004FF680721A4041EA00101043CCF800007A
:10238000704700BF1C21C4F220210860704700BFC5
:10239000B0B50422C4F20102134602F1180E00285F
:1023A00048BF73461C6800F44013B3F5401F1FFA82
:1023B00080FC06D1156824F0706325F07064146009
:1023C00015E0C3020AD46FF00F0303EA50430CFA7E
:1023D00003F324EA030343F0706308E0C0F303430C
:1023E000032505FA03F324EA030343F070636FF057
:1023F0000F0404EA504400290CFA04F518BF2B43DB
:10240000002848BF72461360B0BD00BF10B50C2253
:10241000082402EA810201F0FC01C4F201044FF039
:102420000F0C51F804E00CFA02F32EEA03030B51EF
:102430000B5990401843085110BD00BFDC21C4F275
:10244000202108607047000041F20000C4F2020041
:102450000168002241F0010101604168CFF6FF02EE
:102460001140416001684FF6FF72CFF6F6621140ED
:102470000160016821F480210160416821F4FE01BE
:1024800041604FF41F018160704700BF41F20001BD
:10249000C4F202010A68B0F5803F22F480320A607B
:1024A0000A6822F480220A6005D0B0F5802F18BF98
:1024B00070474FF4A0200A6810430860704700BFBF
:1024C00081B041F20000C4F202000021009100BF7F
:1024D0000168009A01320092009AB2F5A06F02D012
:1024E00011F40031F4D00068C0F3404001B07047EF
:1024F000420941F20001012AC4F2020103D0022A7A
:1025000014BF24312031096800F01F0021FA00F0C7
:1025100000F00100704700BF41F20001C4F2020167
:102520000A6822F0F80242EAC0000860704700BF63
:102530000021C4F242210860704700BF41F204024A
:10254000C4F202021368084323F47C13184310609A
:10255000704700BF6021C4F242210860704700BF8D
:1025600041F20401C4F202010A6822F0030210439E
:102570000860704741F20400C4F20200006800F0F5
:102580000C00704741F20401C4F202010A6822F013
:10259000F00210430860704741F20401C4F20201E6
:1025A0000A6822F4E06210430860704741F20401B7
:1025B000C4F202010A6822F4605242EAC0000860D4
:1025C000704700BF002941F20901C4F202010A78F4
:1025D0000CBF22EA0000104308707047D821C4F2F3
:1025E00042210860704700BF41F20401C4F20201B9
:1025F0000A6822F4404210430860704741F220010B
:10260000C4F20201002201280A700A7003D00428D3
:1026100018BF704705200870704700BF40F2804126
:10262000C4F242210860704741F22001C4F2020165
:102630000A6810430860704740F23C41C4F24221EE
:102640000860704710B541F20404C4F20204226825
:1026500002F00C02082A41F20022C0F27A021CD1D8
:102660002368D4F800C0C3F3834E5FEACC330EF185
:10267000020C06D440F60012C0F23D020CFB02F23E
:102680000BE023689B0302D40CFB02F205E040F64A
:102690000012C0F23D020CFB02F20260226845F219
:1026A000D823C2F30312C0F600039A5C0168D1403C
:1026B00041602268C2F302229A5C21FA02F282602F
:1026C0002268C2F3C2229A5C45F2C423D140C160A1
:1026D0002268C0F60003C2F381329A5CB1FBF2F1CA
:1026E000016110BD002941F21401C4F202010A681F
:1026F0000CBF22EA0000104308607047002941F235
:102700001801C4F202010A680CBF22EA000010435B
:1027100008607047002941F21C01C4F202010A68F6
:102720000CBF22EA0000104308607047002941F204
:102730000C01C4F202010A680CBF22EA0000104337
:1027400008607047002941F21001C4F202010A68D2
:102750000CBF22EA000010430860704740F240417D
:10276000C4F24221086070474C21C4F24221086043
:10277000704700BF41F20701C4F2020108707047C0
:1027800041F22400C4F20200016841F0807101604E
:10279000704700BF41F20801C4F202010968084015
:1027A00018BF0120704700BF41F20A01C4F20201C4
:1027B0000870704780B541F6FF71C4F2000188428D
:1027C00028DD44F2FF31C4F2010188423FDD44F6C6
:1027D000FF31C4F2010188426EDD44F60041C4F2CB
:1027E0000101884200F0B58045F20001C4F2010108
:1027F000884200F0B68045F20041C4F201018842EF
:1028000018BF80BD4FF400100121FFF78FFF4FF478
:102810000010D7E040F6FF71C4F20001884232DCBC
:1028200040F2FF71C4F2000188425ADCB0F1804FDF
:1028300000F09F8040F20041C4F20001884240F065
:10284000D08002200121FFF77DFF0220C4E043F287
:10285000FF31C4F20101884255DC42F20001C4F2AA
:102860000001884200F08B8042F60041C4F2010171
:10287000884240F0B6804FF400600121FFF756FF18
:102880004FF400609EE041F2FF71C4F20001884203
:102890004DDC41F20001C4F20001884277D041F2E0
:1028A0000041C4F20001884240F09B8020200121B9
:1028B000FFF748FF20208FE044F20041C4F20101FD
:1028C00088426AD044F60001C4F20101884240F017
:1028D00088804FF480200121FFF728FF4FF48020EB
:1028E00070E040F60001C4F2000188425DD040F67D
:1028F0000041C4F20001884273D108200121FFF792
:1029000021FF082068E043F20041C4F2010188423F
:1029100051D044F20001C4F20101884261D14FF468
:1029200080300121FFF702FF4FF480304AE041F68A
:102930000001C4F20001884249D041F60041C4F2CE
:10294000000188424DD180200121FFF7FBFE80204D
:1029500042E04FF400200121FFF7E8FE4FF4002091
:1029600030E04FF480100121FFF7E0FE4FF48010BB
:1029700028E001200121FFF7E5FE01202CE04FF4C3
:1029800080700121FFF7DEFE4FF4807024E01020FC
:102990000121FFF7D7FE10201EE04FF40030012187
:1029A000FFF7C4FE4FF400300CE004200121FFF7D4
:1029B000C9FE042010E04FF400500121FFF7B6FEDD
:1029C0004FF400500021BDE88040FFF7AFBE40202B
:1029D0000121FFF7B7FE40200021BDE88040FFF74E
:1029E000B1BE80BD40F6FF33B0F800C0C4F20003B2
:1029F00098420FDCB0F1804F1ED040F20043C4F289
:102A00000003984218D040F60003C4F20003984235
:102A100012D016E040F60043C4F2000398420BD0F7
:102A200043F20043C4F20103984205D042F600434A
:102A3000C4F20103984204D14B882CF0700243EA9F
:102A4000020C41F2004240F48063C4F2000293425F
:102A500004D0CA882CF4407342EA030CA0F800C0EA
:102A60008A888285A0F18042A2F596320B884FEACF
:102A7000B222072A038507D8012303FA02F212F0D3
:102A8000E50F1CBF097A018601218182704700BFD2
:102A9000B0B5028C22F001020284038C8288B0F867
:102AA00018C00C8923F002032343A0F180444D8811
:102AB000A4F59634B1F800E04FEAB424072C43EAB9
:102AC000050313D8012505FA04F414F0E50F0DD021
:102AD0004C8923F00C0324F004048D8823438C8953
:102AE0002B4322F44072CD8922432A432CF07305F4
:102AF00045EA0E0582800583C98881860384B0BDBE
:102B0000B0B5028C22F010020284038C8288B0F8E7
:102B100018E00C894D88B1F800C02C4343F2004501
:102B200023F02003C4F20105A84243EA041305D0B0
:102B300042F60044C4F20104A04211D14C896FF066
:102B4000400523F0C00305EA04148D88234343EABB
:102B500005138C89CD8922F440622C4342EA840219
:102B60002EF4E64545EA0C2582800583C988018755
:102B70000384B0BDB0B5028C22F480720284038C51
:102B80008288B0F81CE00C894D88B1F800C02C4355
:102B900043F2004523F40073C4F20105A84243EA5E
:102BA000042305D042F60044C4F20104A04211D12E
:102BB0004C8940F2FF45240223F44063AC438D88E6
:102BC000234343EA05238C89CD8922F440522C43C8
:102BD00042EA04122EF0730545EA0C0582808583D3
:102BE000C98881870384B0BD70B5028C43F200466A
:102BF00022F480520284038C8288B0F81CE0B1F881
:102C000000C00C894D88C4F20106B04205D042F6DE
:102C10000046C4F20106B04204D18E8922F48042FB
:102C200042EA86122EF4E64646EA0C268280868325
:102C300023F400532C43C98843EA0432A0F840101F
:102C4000028470BDF0B50A88082A29D0042A52D01F
:102C5000002A7BD14B88B1F804C0B1F808E0028C9F
:102C600040F6FF3622F001020284024632F8184F85
:102C7000058CC4F20006B0424FF6FC7600F38F805C
:102C8000B0F1804F00F09E8040F20047C4F2000790
:102C9000B84200F0978040F60007C4F200078EE0CB
:102CA0004B88B1F804C0B1F808E0028C40F6FF3759
:102CB00022F480720284024632F81C4F058C6FF4B5
:102CC0004056C4F20007B84206F5145600F38B8054
:102CD000B0F1804F00F0998040F20047C4F2000745
:102CE000B84200F0928040F60007C4F20007B842F4
:102CF00000F08B808EE04B88B1F804C0B1F808E09A
:102D0000028C40F6FF3722F010020284024632F8AD
:102D1000184F058C6FF00306C4F20007B842A6F105
:102D2000AD0600F38880B0F1804F00F0968040F24D
:102D30000047C4F20007B84200F08F8040F6000759
:102D4000C4F20007B84200F088808AE04B88B1F8EE
:102D500004C0B1F808E0028C40F6FF3622F480523D
:102D60000284024632F81C4F058CC4F20006B042C1
:102D700046F6FF5600F38980B0F1804F00F097804F
:102D800040F20047C4F20007B84200F0908040F6DD
:102D90000007C4F20007B84200F089808AE040F6DC
:102DA0000047C4F20007B8420CD042F60047C4F214
:102DB0000107B84206D043F20047C4F20107B84207
:102DC00018BF083E35402B4324F0F3044CEA0E179D
:102DD00043F00103274307830384C988038B23F04F
:102DE0000C0303837AE040F60047C4F20007B842C0
:102DF0000BD043F20047C4F20107B84205D042F6B7
:102E00000047C4F20107B84204D14CF6FF761B021A
:102E100006F5345635402B4324F0F3044CEA0E17E4
:102E200043F48073274387830384C988838B23F00B
:102E30000C03838352E040F60047C4F20007B84217
:102E40000BD043F20047C4F20107B84205D042F666
:102E50000047C4F20107B84203D14FF6FC761B01CC
:102E60002D3E35402B4340F6FF452C4044EA0E37BB
:102E700043F0100347EA0C2707830384C988038BB8
:102E8000090223F44063038328E040F60047C4F2BC
:102E90000007B8420BD043F20047C4F20107B84222
:102EA00005D042F60047C4F20107B84202D14CF601
:102EB000FF761B0335402B4340F6FF454FEA0E37A4
:102EC0002C4047EA0C2743F480532743878303842D
:102ED000C988838B090223F44063838310880843E5
:102EE0001080F0BD028B22F00C020283028B114392
:102EF00001837047028B22F440620283028B42EA14
:102F000001210183704700BF828B22F00C02828373
:102F1000828B114381837047828B22F440628283CB
:102F2000828B42EA01218183704700BF2DE9F04F77
:102F30004E888D884FF0010BB6FA86F2012D08BF3E
:102F40004FF0020B0C885709B1F808A0038C4FF61C
:102F5000FC7E4FF6FC784FEA470CE4B123F01003F7
:102F6000038440F6FF39048B078CC4F200094845FE
:102F7000AEF1AD032ADCB0F1804F39D040F200420F
:102F8000C4F20002904233D040F60002C4F20002C4
:102F900090422DD02FE023F00103038440F6FF3947
:102FA000048B078CC4F20009484577DCB0F1804FF0
:102FB00000F0888040F20043C4F20003984200F021
:102FC000818040F60003C4F2000377E040F600423F
:102FD000C4F2000290420BD043F20042C4F201025C
:102FE000904205D042F60042C4F20102904202D162
:102FF0003601AEF12D0307EA030240F6FF432340FA
:10300000324343EA0A3342F0100243EA05230383C2
:103010000284C988028B484522F440620283028BF5
:1030200042EA01220283028C22F001020284048B14
:10303000058C0DDCB0F1804F1ED040F20042C4F28E
:103040000002904218D040F60002C4F200020FE0E5
:1030500040F60042C4F2000290420DD042F6004217
:10306000C4F20102904207D043F20042C4F20102CE
:10307000904218BFAEF1080805EA080224F0F303F5
:1030800042EA0C0243EA0A1342F001025B44038362
:103090000284028B22F00C0202836CE040F60043B3
:1030A000C4F2000398420DD042F60043C4F201037B
:1030B000984207D043F20043C4F20103984218BF7C
:1030C000AEF1080807EA080324F0F304334344EAA6
:1030D0000A1443F001032C4304830384C988038B3F
:1030E000484523F00C030383038BAEF1AD0643EA9E
:1030F00001030383038C23F010030384048B058CEA
:103100000FDCB0F1804F1ED040F20043C4F2000348
:10311000984218D040F60003C4F20003984212D03F
:1031200015E040F60043C4F2000398420BD043F28E
:103130000043C4F20103984205D042F60043C4F2B2
:103140000103984203D14FEA0C1CAEF12D0640F664
:10315000FF4705EA0603274043EA0C0347EA0A371C
:1031600043F0100347EA0B2202830384028B090217
:1031700022F440620283028B11430183BDE8F08F89
:10318000B1F800C04B888A8843EA0C0343EA020C7A
:10319000CB880A8943EA0C031A434B8989891A436D
:1031A0001143A0F84410704700220021CFF6FF72AF
:1031B0000180C180C0F80220017270470021C16007
:1031C000816041600160704700210122016042601E
:1031D00001817047002181818160416001607047F9
:1031E0000288002918BF012122F001021144018048
:1031F000704700BFB0F84420002918BF01216FF3C9
:10320000DF3242EAC131A0F844107047002A8289B7
:103210000CBF22EA0101114381817047818270470E
:103220001143A0F848107047002A82890CBF22EA97
:103230000101114381817047018921F0070101815A
:10324000704700BF028922F0700211430181018999
:1032500041F0070101817047028922F07002114399
:103260000181704770B5058C60294FF6FC7C1DD13B
:1032700025F01005058440F6FF35B0F818E0048C01
:10328000C4F20005A842ACF1AD0529DCB0F1804FD5
:1032900038D040F20046C4F20006B04232D040F6C8
:1032A0000006C4F20006B0422CD02EE025F0010644
:1032B000068440F6FF35B0F818E0048CC4F200052F
:1032C000A8422FDCB0F1804F40D040F20045C4F25C
:1032D0000005A8423AD040F60005C4F2000531E0EE
:1032E00040F60046C4F20006B0420BD043F200465E
:1032F000C4F20106B04205D042F60046C4F201060F
:10330000B04202D11201ACF12D0504EA05063243A8
:1033100040F6FF4642F010020EEA06041D034FF489
:1033200080731CE040F60045C4F20005A8420DD0B1
:1033300042F60045C4F20105A84207D043F2004519
:10334000C4F20105A84218BFACF1080C04EA0C064F
:10335000324342F001022EF0F3051C01012344EA3E
:103360000506334303830284028922F0700211436D
:103370000181018941F00701018170BDB0F808C0E9
:1033800011435FFA8CFC41EA032141EA0C010181FF
:10339000018941F077010181704700BFB0F808C092
:1033A00011435FFA8CFC41EA032141EA0C010181DF
:1033B000704700BFB0F808C011435FFA8CFC41EAC7
:1033C000032141EA0C010181018941F4804101811D
:1033D000704700BF01858282704700BF028822F0DB
:1033E0007002114301807047B0B5B0F808C0B0F862
:1033F00018E0058C2CF0070421434FF6FC4404EA46
:103400000E0425F0220542EA031204F201142A43B5
:10341000018104830284B0BD028B22F0700211434B
:1034200001837047028B22F4E04242EA01210183CA
:10343000704700BF828B22F0700211438183704776
:10344000828B22F4E04242EA01218183704700BF6F
:103450000288002918BF012122F0800242EAC1112E
:10346000018070478288002918BF012122F00402E0
:1034700042EA8101818070478288002918BF0121BA
:1034800022F0080242EAC101818070478288002947
:1034900018BF012122F0010211448180704700BF52
:1034A000028B22F00802114301837047028B22F441
:1034B000006242EA01210183704700BF828B22F043
:1034C0000802114381837047828B22F4006242EA32
:1034D00001218183704700BF028B22F00402114357
:1034E00001837047028B22F4806242EA012101834A
:1034F000704700BF828B22F0040211438183704722
:10350000828B22F4806242EA01218183704700BFEE
:10351000028B22F08002114301837047028B6FF30C
:10352000DF3242EA01210183704700BF828B22F023
:103530008002114381837047828B6FF3DF3242EA4E
:1035400001218183704700BF028C22F002021143E7
:1035500001847047028C22F00802114301847047F5
:10356000028C22F0200242EA01110184704700BF60
:10357000028C22F0800242EA01110184704700BFF0
:10358000028C22F4007242EA01210184704700BFDC
:10359000028C22F4006242EA01210184704700BFDC
:1035A000028C22F4005242EA01310184704700BFCC
:1035B00080B54FF0010CB0F820E00CFA01F32EEAD0
:1035C00003030384038C02FA01F11943018480BDD3
:1035D00080B54FF0040CB0F820E00CFA01F32EEAAD
:1035E00003030384038C02FA01F11943018480BDB3
:1035F00010B54FF0010CB0F820E00CFA01F32EEA00
:10360000030C6FF0080300F118041942A0F820C061
:103610000AD0081F80B24108635804EB500023F41D
:10362000E0431202635007E04B0853F804C004EB78
:1036300051002CF070011951016892B211430160E0
:1036400010BD00BF0288002918BF012122F002022C
:1036500042EA4101018070470288002918BF012118
:1036600022F0040242EA8101018070478288002929
:1036700018BF012122F0800242EAC1118180704707
:10368000028822F0080202800288114301807047FC
:10369000828822F070028280828811438180704784
:1036A000028922F0070202810289114301817047D9
:1036B000028922F080020281028911430181704750
:1036C0008184704781857047818670470187704784
:1036D00081877047A0F84010704700BF028822F42D
:1036E000407202800288114301807047808E7047CB
:1036F000008F7047808F7047B0F84000704700BF60
:10370000808C7047008D7047008A084018BF0120E8
:10371000704700BFC9430182704700BF028A808999
:103720000A4000EA010018BF0122002818BF01204A
:1037300010407047C9430182704700000948804724
:1037400009480047FEE7FEE7FEE7FEE7FEE7FEE783
:10375000FEE7FEE7FEE7FEE704480549054A064B9B
:10376000704700007D370008ED0000087815002044
:10377000781B0020781700207817002082B041F2D3
:103780000400C4F2020050F8041C002241F00101C0
:1037900040F8041C0168CFF6FF021140016050F8A8
:1037A000041C4FF6FF72CFF6F662114040F8041C7D
:1037B00050F8041C21F4802140F8041C016821F415
:1037C000FE0101604FF41F01416000210191009151
:1037D00050F8041C41F4803140F8041C50F8041CDB
:1037E00001F400310091019901310191009919B959
:1037F0000199B1F5A06FF1D150F8041C890354BFB1
:103800000021012100910099012936D142F20001E5
:10381000C4F202010A6842F010020A600A6822F04B
:1038200007020A600A6842F002020A600168016049
:1038300001680160016841F480610160016821F460
:103840007C110160016841F4E811016050F8041C2A
:1038500041F0807140F8041C50F8041C8901FBD52C
:10386000016821F003010160016841F0020101607B
:10387000016801F00C010829FAD14EF60850CEF289
:1038800000004FF00061016002B0704741F2040097
:10389000C4F20200016801F00C01082941F2002184
:1038A000C0F27A0117D102680368C2F38342DB03D6
:1038B00002F1020205D440F60011C0F23D0151436D
:1038C00009E003689B0301D4514304E040F6001172
:1038D000C0F23D01514340F20002C2F20002116009
:1038E000006845F2C821C0F30310C0F60001085C6F
:1038F000116821FA00F0106070474FF0000200B527
:10390000134694469646203922BFA0E80C50A0E802
:103910000C50B1F12001BFF4F7AF090728BFA0E8B0
:103920000C5048BF0CC05DF804EB890028BF40F87C
:10393000042B08BF704748BF20F8022B11F0804FBE
:1039400018BF00F8012B704770477047704710B5DB
:1039500000F008F8006810BD10B5044600F002F849
:10396000046010BD004870474800002000487047C0
:10397000480000207546FFF7F9FFAE46050069468E
:10398000534620F00700854618B020B5FFF7E4FE47
:10399000BDE820404FF000064FF000074FF0000850
:1039A0004FF0000BAC46ACE8C009ACE8C009ACE88D
:1039B000C009ACE8C00921F007018D46704710B579
:1039C0000446AFF300802046BDE81040FCF7D5BBAD
:1039D00001491820ABBEFEE72600020070474900EF
:1039E00050EAC12018BF04204A0D18BF40F0010062
:1039F00040F2FF72B2EB515F08BF40F002000128B5
:103A000008BF0520704700002DE9F74F144694B019
:103A10000021C4E902111599079121F00045C94917
:103A20008D4206DC1599C4E9000117B00020BDE8FD
:103A3000F08FC549DFF814A3A9423CDD0799C44EB5
:103A40000029C44FC44A1599534619DD01F046F8C0
:103A5000554506D0C14AC24B01F040F8C4E9000107
:103A60000AE04FF0D352BE4B01F038F832463B46E5
:103A700001F034F8C4E9000117B00120BDE8F08F6F
:103A800000F0D8FB554506D0B44AB54B00F0D2FB48
:103A9000C4E900010AE04FF0D352B14B00F0CAFB79
:103AA00032463B4600F0C6FBC4E9000117B04FF0B8
:103AB000FF30BDE8F08FAB49A942159978DB21F0C2
:103AC000004183468846A84AA84B00F017FE002212
:103AD000A74B00F0AFFB00F0B7FD099000F0E3FD4D
:103AE00006460F469C4A534600F008FE43465A4697
:103AF00000F002FF80468A46984A994B3046394684
:103B000000F0FCFD2A0D01250B924246534600F0C1
:103B1000F3FE032DC4E9000139D00B98C1F30A511B
:103B2000401A05EB45111139814230DA9148C346FC
:103B3000784400EB0510CDF80CA00C90D0E90023E0
:103B40003046394600F0DAFD02460B4604910690F5
:103B50005846039900F0C2FF80468A4602460B464B
:103B60005846039900F0BAFF049B069A00F0B6FF8E
:103B700083460C9803913946D0E90223304600F081
:103B8000BDFD5A46039B00F0A9FF6D1CBDE70798D9
:103B90000028A2BF099817B0BDE8F08F616881F0D6
:103BA00000416160099817B04042BDE8F08FFFE71F
:103BB00084461598C1F31301C0F30A50A0F2F53002
:103BC0004FEA601800F01F06C6F120001390002095
:103BD0000690079041F4801E05206D4676B1664A36
:103BE00008EB00017A4452F8213002EB8101B34026
:103BF0004A68139922FA01F1194305E05F4908EB7D
:103C00000002794451F82210A1FB0E27A1FB0C13EE
:103C10001A449A4234BF0123002303EB070A05EB41
:103C20008003D3E901B70F448F4234BF0121002143
:103C300093448B4411B1934502D903E0934501D2DB
:103C4000012100E00021C3E901B7514445F82010EB
:103C5000011EA0F10100C1DC0298059F00F1005097
:103C6000800F12900298DDE90356800000F01BFDE2
:103C7000834628460D9100F02DFD6FF01D0201F0E6
:103C800038FACDE90E01304600F024FD6FF03D0218
:103C900001F02FFA80468A46384600F01BFD6FF08F
:103CA0005D0201F026FA074642465346119100F0A4
:103CB000C1FADDE90E2300F0BDFA5A460D9B00F073
:103CC000B9FA00250E465A4628460D9B00F006FF1D
:103CD000DDE90E2300F002FF4246534600F0FEFEEF
:103CE0003A46119B00F008FEDFF898A0244A53469C
:103CF00000F004FD07468846234A244B31462846F7
:103D000000F0FCFC3A46434600F094FA0746884629
:103D10004FF0A84253463146284600F0EFFC3A46A1
:103D2000434600F087FA159A12F0004F04D0129A19
:103D300081F0004152421292C4E90001129817B07A
:103D4000BDE8F08FFB21E93F7CD90240FB21F93F20
:103D50007370032E8A19A33B000040543163621A2A
:103D600061B4D03DFB21394183C8C96D305FE43F68
:103D70000000E03F7C160000F8150000DA15000096
:103D8000182D4454FB21F93D3326A611460B113C56
:103D90002DE9FF4D21F0004807460C46B8F1795F48
:103DA00008DA00F051FC002801BF0020324904B0BD
:103DB000BDE8F08D3A4623461046194600F09EFCB9
:103DC000054602462D480E460B460621784400F073
:103DD0005DF82A46334600F091FCDDE90223824675
:103DE0008B463846214600F089FC04460F46524671
:103DF0005B462846314600F081FC22463B4600F0F7
:103E00006DFE07468A464FF0FF322846314601F0E4
:103E100070F91B4A90450ADA3A46534600F05EFEB6
:103E200004B00022BDE8F04D134B00F065BD154A0B
:103E30004245A8BFA8F500154FF00004B8BF124DC9
:103E400022462B4600F04AFE0646884622462B466E
:103E50000020094900F042FE04460D463A4653460A
:103E60003046414600F03AFE04B022462B46BDE8FB
:103E7000F04D00F041BD00000000F03FB013000025
:103E80003333D33F0000E93F0000D23F2DE9F0413A
:103E90004F1E00EBC7010446D1E9000115461E463E
:103EA00037F006020DD02A46334600F027FC7F1E6D
:103EB00004EBC703D3E9002300F0BCF937F0060296
:103EC000F1D1022F25D0042F13D0062F18BFBDE843
:103ED000F0812A46334600F011FCD4E90A2300F0B1
:103EE000A9F92A46334600F009FCD4E9082300F07A
:103EF000A1F92A46334600F001FCD4E9062300F07C
:103F000099F92A46334600F0F9FBD4E9042300F07E
:103F100091F92A46334600F0F1FBD4E9022300F080
:103F200089F92A46334600F0E9FBD4E90023BDE8CD
:103F3000F04100F07FB900002DE9FF4D054621F06A
:103F4000004084B00C46B0F1795F0BDA2846FFF7E9
:103F500046FD042808BF00F06FF8284608B0214647
:103F6000BDE8F08D2A460B46104600F0C7FB06461A
:103F70000F462A46234600F0C1FB804626488A4663
:103F800032463B4605217844FFF780FF8346109870
:103F9000029160B3214A224B4046514600F0AEFBED
:103FA000CDE900015A4640465146029B00F0A6FB6F
:103FB00082468846DDE906014FF0FF3201F099F8AC
:103FC0005246434600F08AFD32463B4600F096FBDF
:103FD000DDE9062300F082FDDDE9002300F07EFD2F
:103FE00008B02A462346BDE8F04D00F085BC0B46DC
:103FF0005A463046394600F081FB084A084B00F02B
:1040000019F94246534600F079FB08B02A46234688
:10401000BDE8F04D00F00EB9F612000049555555B7
:104020005555C5BF012201F064B800221346104661
:10403000114600F0AFB90000024A0020110701F05C
:1040400058B8000001FDFFFF00B5244B21F00042ED
:1040500087B09A42DCBF0022134629DD204B9A42EA
:1040600008D140B94FF00100FFF776FCFFF7DDFF04
:1040700007B000BD03DBFFF7D5FF07B000BD02AA04
:10408000FFF7C2FC10F0030104BF0DF1080C9CE81F
:104090000F000DD0012001290ED0022914D00DF1FE
:1040A000080C00909CE80F00FFF746FF07B000BD2A
:1040B000FFF76EFE07B000BD0DF1080C00909CE804
:1040C0000F00FFF739FF05E00DF1080C9CE80F0029
:1040D000FFF75EFE07B081F0004100BDFB21E93F24
:1040E0000000F07F00B5254B21F0004287B09A42D6
:1040F00003DC0022134600922BE0214B9A4208D1A8
:1041000040B94FF00100FFF727FCFFF78EFF07B023
:1041100000BD03DBFFF786FF07B000BD02AAFFF773
:1041200073FC10F003014FF001000DD0012914D0F1
:1041300002291AD00DF1080C9CE80F00FFF728FEA9
:1041400007B081F0004100BD0DF1080C00909CE823
:104150000F00FFF7F1FE07B000BD0DF1080C9CE861
:104160000F00FFF715FE07B000BD0DF1080C009021
:104170009CE80F00FFF7E0FEE2E70000FB21E93FCB
:104180000000F07F2DE9F04106460F4600F0C0FB2D
:10419000041E0D4618BF0120284320F00040C0F146
:1041A0007F6000F1E040C00F0ED0301C18BF01202E
:1041B000384320F00040C0F17F6000F1E040C00FC4
:1041C00004BF0120FFF7C8FB20462946BDE8F08167
:1041D00021F0004201F00043A2F16052B2F5801FCD
:1041E00028BFD2F17F6C0BD95FEA001C43EAC20200
:1041F00042EB507018BF704728BF20F00100704795
:10420000B2F5801FBCBF184670474FEA410C1CF541
:10421000001F02D2084600F0C0BE70B500F018FBC7
:1042200000000089FFF7F6BF4FF00040A0F58000C6
:104230007047000010B591EA030F48BF83F00043B8
:1042400000F15484841A71EB030C05D2121943EB6C
:104250000C03001B61EB0C014FEA1154A4EB135C3F
:10426000DFF81CE11EEA430F18BF9EEA445F00F02E
:10427000748021EA045123EA0E0343F48013DCF135
:10428000200E32D322FA0CFE10EB0E0023FA0CFEA5
:1042900041EB0E01CCF1200E03FA0EFE10EB0E00E6
:1042A000CCF1200E51F10001B1F5801F32D201EBAB
:1042B000045112FA0EF2BDE8104058BF7047401C7E
:1042C00038BF5FEA420218BF7047002814BF20F0D1
:1042D000010041F100014FEA410313F5001F38BF0F
:1042E0007047A1F1C04100F001BB012A43EB03027A
:1042F000ACF1200CDCF11F0E32BF4FF0000E23FAA0
:104300000CF310EB030041EB0451B4EB115FD0D080
:10431000A1EB045101F58011490801EB04515FEA5A
:1043200030000ED350F1000038BF12FA0EFE08D153
:10433000BDE81040C9E7401C38BF5FEA4202CAD15D
:10434000C3E7BDE810404FEA410313F5001F38BF33
:104350007047A1F1C04100F0C9BA9EEA445F08D09D
:1043600011EA5E0FBDE8104004BF01F000410020DB
:104370007047BDE8104070B500F06AFA64FBBE3EBD
:104380000000E0FF02494FF0000000F080BE00BFD7
:104390000000F87F2DE9C04130B4DFF8A4C23CEA48
:1043A000111418BF3CEA131400F0ED801CEA11143C
:1043B00081EA030544EAD57418BF1CEA131500F01E
:1043C000C880A4EB050404F17F7404F500344FF0B9
:1043D000004545EAC12145EAC32341EA505143EA79
:1043E00052534FEAC0204FEAC222994208BF90427E
:1043F00000F09D804FEA13650FF24416765D4FEA98
:10440000134506FB05F7C7F1807706FB07F74FEA70
:10441000D737A7FB03687642A7FB06CEC8F58038DE
:1044200038BFA8F1010807FB08E6A6FB028C4FF095
:10443000000EE6FB03CEDCF1000CCEF1004E38BFDF
:10444000AEF1010EA6FB0C584FF00007E6FB0E87FD
:10445000A1FB08C6A0FB07CE16EB0E064FF0000529
:1044600045F10005E1FB076515F1E04E7EBFA4F5BF
:1044700080345FEA46066D4116F1800745F100057C
:104480004FEA172747EA05674FEA15254FEA066600
:10449000A6F1DE46B6F1805F20D9384605EBC4713F
:1044A00024F0010C01EB0C11BCF1FE6F02D8F0BC42
:1044B000BDE8008124425CBF01F5801E9EEAC47FF6
:1044C00002D4F0BCBDE80081244200F13980A1F1A2
:1044D000C041F0BCBDE8004100F008BA4FEAD0206E
:1044E00040EA41504FEAD1214FEAD22242EA4352F8
:1044F0004FEAD323A7FB028607FB036605FB026690
:104500001EEA0E0F58BFA6EB0056B6EB00564FEA58
:10451000520E4EEAC37E18EB0E0E56EB530EBCD570
:1045200018EB02085E417F1C55F10005B5E74FF41A
:1045300080154FF000074FF000064FF00008ACE781
:1045400001F1C04101F000414FF00000F0BCBDE8B6
:1045500000810CEA131511EA0C1F00D00CE013EADD
:104560000C1F00F026804FF0000081EA030101F0EB
:104570000041F0BCBDE80081F0BCBDE8004181EA2B
:10458000030100F0B3B9F0BCBDE8004170B500F024
:104590005FF900BF097EFC3E00F007B84FF0000055
:1045A00081EA030101F00041704781EA030100F054
:1045B0009DB9F0BCBDE8004122494FF000007047B2
:1045C000FFFDFBF9F7F5F4F2F0EEEDEBE9E8E6E4D8
:1045D000E3E1E0DEDDDBDAD8D7D5D4D3D1D0CFCD5F
:1045E000CCCBCAC8C7C6C5C4C2C1C0BFBEBDBCBB98
:1045F000BAB9B8B7B6B5B4B3B2B1B0AFAEADACAB93
:10460000AAA9A8A8A7A6A5A4A3A3A2A1A09F9F9E6C
:104610009D9C9C9B9A99999897979695959493931E
:10462000929191908F8F8E8E8D8C8C8B8B8A8989B5
:104630008888878786858584848383828281818038
:104640000000FF070000F87F4FEA41034FEA535391
:10465000A3F58063D3F11E03C8BFD3F1210C0CDD99
:104660004FF0004242EAC12242EA505232FA03FCC1
:104670008CEAE17CACEBE1707047102BC4BF0020EA
:10468000704703F5787CBCF1FF3F04D06FF0004227
:1046900082EA2100704770B500F0DAF84992248070
:1046A00000207047F2E710F0004248BF4042B0FAE5
:1046B00080F310FA03F10AD0C3F11D0303F5806300
:1046C00002EB03524FEA415002EBD12170474FF009
:1046D00000007047B0FA80F310FA03F10AD0C3F17A
:1046E0001D0303F580634FEA03524FEA415002EB8A
:1046F000D12170474FF000007047000070B5DFF81F
:1047000048C11CEA111E1EBF1CEA13159EEA0C0FBD
:1047100095EA0C0F00F06F8081EA03044EEAD47E24
:10472000AE4421EA4C1123EA4C1341F4801143F4C6
:104730008013AEF17F7EA1FB024CA0FB036536190E
:1047400055EB0C05A1FB034C4CF10003A0FB021C34
:1047500016EB0C06654153F10003094218BF46F001
:10476000010613F4007F0BD14FEA03314FEA053005
:1047700041EA155140EA165034036FF003020AE093
:104780004FEAC3214FEAC52041EA555140EA56504D
:10479000F4026FF0020202EB2E4201EB025585EAB1
:1047A000CE710AD05FEA440C18BF24F0004450F1E7
:1047B000000041F1000120EAD47040F2FE7C624525
:1047C00000D270BDA84214BF4FF080444FF0404467
:1047D000002E08BF0024BEF1806FA8BFA1F1C04128
:1047E000BDE8704080F2828001F1C04101F00041DB
:1047F0004FF0000070470CEA13159EEA0C0F18BF2B
:1048000095EA0C0F06D081EA030E4FF000000EF07F
:10481000004170BD00F01CF88900013E00F007B8AF
:1048200000F009B84FEA430C5FEA5C5C08D081EA0B
:10483000030100F05BB84FEA410C5FEA5C5CF6D123
:1048400002494FF0000070470000FF070000F87FAA
:104850000EF1020E2EF0030E5EF8046B364205D404
:10486000012A43EB030515F5001F12D8012841EB7F
:10487000010C1CF5001F0CD80ED14FEAD17C0CEBBB
:104880004C0C0CF1020C15F5001F08BF4CEBD37C4F
:1048900004E04FF0080C01E04FEAD37C0CEB4C0530
:1048A00026FA05F606F00706B6F1040C06D20EEB62
:1048B000860CBDE870404CF0010C6047DFE80CF05E
:1048C000090B02024FF00041A1F500214FF000005A
:1048D00070BD19461046012851EB010418BFD4F5EC
:1048E000001484BF002001F0004170BD0808A0F54D
:1048F00000114FEA3101704710B591EA030F81F0C2
:1049000000413FF59FAC83F0004300F0EFB800009A
:104910002DE9F04101F5801CBCF5001FC0F2C380F9
:104920004FEA115C21EA0C5141F480110CF1FD0CAD
:104930005FEA5C0C0CF5C07C01D340004941890260
:1049400041EA905187023BA48E0EA45D0A0C04FB41
:1049500004F602FB06F6C6F14046A4FB0662F60D1D
:1049600046EA422606FB06F4A4FB01235242C3F1A9
:10497000404338BF5B1EA6FB02420024E6FB032433
:10498000D20B42EA4446A6FB0623A1FB02E2A3FBAC
:1049900007E4A4184FF0000252F10002E3FB0142C9
:1049A0006442C2F1404E38BFAEF1010EA6FB0423B3
:1049B0004FF00002E6FB0E32A2FB0346B6194FF0A1
:1049C000000454F10004E2FB0264A1FB06E6A4FB30
:1049D00007E816EB08064FF0000858F10008E4FB62
:1049E00001687642C8F1405838BFA8F10108A2FB1F
:1049F00006E4A3FB08E52D194FF0000454F1000470
:104A0000E2FB0854A1FB05E6A7FB04E818EB060847
:104A10004FF0000656F10006E1FB048618F1200570
:104A200056F10006A80940EA8660B109A8F11B0802
:104A300008F03F08B8F10A0F1CD901EB0C51BDE892
:104A4000F08100BFFCF5EEE8E2DDD8D3CFCBC7C3E1
:104A5000C0BDB9B6B4B1AEACA9A7A5A3A19F9D9B9B
:104A60009A9896959392908F8D8C8B89888786855E
:104A700084838281A0FB006800FB01F208EB4208FE
:104A8000B8EB872807D5341858EB0104D5D5401C5E
:104A900051F10001D1E7341A78EB0104CDD4401E66
:104AA00071F10001C9E75FEA4C0C5FEA9C5C0DD133
:104AB00005D301F000414FF00000BDE8F081BDE8F2
:104AC000F04170B5FFF7C4FE6DDBFFBEBDE8F041FD
:104AD00001494FF0000070470000F87F10B591EADF
:104AE000030F48BF83F000433FF5ACAB841A71EB72
:104AF000030C07D28CF0004C121943EB0C03001B83
:104B000061EB0C014FEA1154A4EB135CDFF8A4E154
:104B10001EEA430F18BF9EEA445F00F0B48021EA0A
:104B2000045123EA6E035242C3EB6E0338BF5B1E8F
:104B3000DCF1200E25D322FA0CFE10EB0E0043FA16
:104B40000CFE41EB0E01CCF1200E03FA0EFE10EB31
:104B50000E00CCF1200E51F1000129D401EB0451DB
:104B600012FA0EF2BDE8104058BF7047401C1CBF3F
:104B7000B2F1004F704700280CBF491C20F0010023
:104B8000704712EB020E43EB030218BF4FF0010E09
:104B90004EEA4202ACF1200CDCF11E0E56D943FA6B
:104BA0000CFE10EB0E00CCF11E0E51F1FF31D5D5ED
:104BB0000EF1010E12FA0EFE404141EB010101EB34
:104BC000445C5FEA5C5C10D901EB045110EBDE70D1
:104BD00038BFBEF1004FBDE8104018BF7047002835
:104BE0000CBF491C20F00100704734D24FEAD42C8E
:104BF00024F4006411F500111BD0B1FA81F20B3AD4
:104C0000A41AA41ED2F12003914030FA03F31943F1
:104C1000904001EBCC7101EB0451002CBDE8104039
:104C2000A8BF704701F1C04101F000414FF0000002
:104C30007047B0FA80F310FA03F102D1BDE81040DA
:104C40007047E41A173C4805C90AE2E701EB045132
:104C5000BDE81040704749104FEA300001EB0451A5
:104C6000BDE8104002E04FF0000170474A0008BF65
:104C70000042F8D0B2F5001F28BF704701F0004194
:104C80004FF0000070479EEA445F07D011EA5E0FC4
:104C9000BDE8104004BF002100207047BDE810406F
:104CA00070B5FFF7D5FD00BF40DFF63E104683F03C
:104CB000004170470000E0FF90EA010F48BF81F01B
:104CC000004100F17681421A3CBF801A89184FEAF0
:104CD000D052A2EBD1534FF07F4C1CEA410F18BFCA
:104CE0009CEA026F00F03B804FF0004C4CEA002041
:104CF0004CEA012121FA03FC10EB0C0C1ED202F14C
:104D0000FF325FEA1C2040EBC25038BF70471CF0F6
:104D10007F0F4FEA400C18BFBCF17F4F38BF704780
:104D2000C3F12003994008BF20F00100BCF17F4F80
:104D300038BF7047A0F1C04000F02FB94FEA3C00E7
:104D4000000A40EBC25028BF1CF0FF0F4FEA400C96
:104D5000E6D018BFBCF17F4F38BF7047EAE79CEA46
:104D6000026F05D010EA5C0F08BF00F000407047EA
:104D700010B500F0CCF800BF64FBBE3E41000B0E46
:104D8000D3F19E0208D950F400034FEA032323FA1B
:104D900002F048BF4042704710B500F0B8F800BFBD
:104DA00049922480002070476FF0004282EA200080
:104DB0007047000010F0004148BF4042B0FA80F355
:104DC00010FA03F2C3F19D030BD051EAC35101EB7A
:104DD0001220530638BF704700F1010008BF20F0D1
:104DE00001007047B0FA80F310FA03F2C3F19D039B
:104DF0000AD0D90501EB1220530638BF704700F1E5
:104E0000010008BF20F00100704700004FF47F0C44
:104E10001CEAD0121EBF1CEAD11392EA0C0F93EACF
:104E20000C0F00F0478090EA010F48BF42F48072F7
:104E30004FF0004C4CEA00204CEA012102EB030247
:104E4000A0FB0113A2F50002002918BF43F00103E3
:104E50005B0028BF4FEA330342EB22425FEA132C88
:104E60004CEBC2502EBFBCEB436FB2F57C0F7047CA
:104E70004FEA036CBCF1004F08BF20F00100B2F50F
:104E80007C0F38BF70470BD582F0FF0212F5803FD0
:104E9000C8BF704700F1C040D8BF00F00040704765
:104EA00000F5000C5FEA4C0C48BF7047B0F1C04001
:104EB00000F073B80CEAD11390EA010F48BF42F436
:104EC0008072624538BF634504D280EA010000F079
:104ED0000040704710B500F01AF800BF8900013E8D
:104EE00000F007B800F009B85FEA410C5FEA1C6CFB
:104EF00008D080EA010000F050B85FEA400C5FEA99
:104F00001C6CF6D14FF00040A0F5800070470EF108
:104F1000020E2EF0030E5EF8044B244204D44FEA36
:104F20004102B2F17F4F11D84FEA4003B3F17F4FF6
:104F30000CD80ED14FEAD07C0CEB4C0C0CF1020CCF
:104F4000B2F17F4F08BF4CEBD17C04E04FF0080C6E
:104F500001E04FEAD17C0CEB4C0324FA03F404F09B
:104F60000704B4F1040C06D20EEB840CBDE810402B
:104F70004CF0010C6047DFE80CF0070802024FF02C
:104F80000040A0F5800010BD0846420018BFD2F1D5
:104F9000807288BF00F0004010BDFF2141EAD05070
:104FA000C005704790EA010F48BF81F000413FF50E
:104FB0008AAE421A04D882F00042A0EB02001144EB
:104FC0004FEAD052A2EBD1534FF07F4C1CEA410F75
:104FD00018BF9CEA026F4AD04FF0004C4CEA002008
:104FE0004CEA012121FA03FCB0EB0C0C0FD412F0B7
:104FF000FE0F36D05FEA4C001DD5001240EBC250C8
:1050000038BF70471CF03F0F18BF70470BE05FEAD6
:105010001C20A2F1010240EBC25038BF70471CF0C7
:105020007F0F18BF7047C3F12003994014BF401E83
:1050300020F0010070474FEA1223800808BF704734
:10504000B0FA80FCA2EB0C02CCF1280C60FA0CF058
:1050500093EA122F04BF00EBC25070474FEAC370AF
:105060007047130A5FEADC1008BF7047F6E79CEA56
:10507000026F04D010EA5C0F08BF0020704710B523
:10508000FFF745FF40DFF63E81F0004070470CF02F
:105090000F03092B08BF082000F059800A2B0BD002
:1050A000082B18BF704708BF1CF0400F0AD04FF004
:1050B00000004FF0000170471CF0400F18BF4FF088
:1050C000004070471CF0100F08D000F07F4220F025
:1050D000704342EAD3014FEA4370704700F06040EA
:1050E00021F07F4242EA000201F07F4040EA727004
:1050F00070474FF0FF0C4CF4E06C1CEA11531CBFDE
:105100009CEA030C9445C2BFDA4201EB025170479E
:10511000002B0DD0BCF1000F0FD001F00041002A90
:10512000A4BF41F0E04141F07F614FF000007047C3
:1051300001F000414FF00000704750EA01334FF09A
:105140009B0C18BF4CF0806C7FF41CA970471CF4BA
:10515000801F11D01CF4E02F03D06FEACC3149003E
:1051600070474FF04050EFF3008222F0704242EA65
:10517000000282F3008870474FF000007047000083
:105180004C5555555555A53F7751C1166CC156BF65
:105190009015CB19A001FA3EAD529C804F7E92BE75
:1051A000C4B1B4BD9EEE213ED43888BEE9FAA8BD94
:1051B00000004054FB21F93F3163621A61B4D03DD5
:1051C0000000601A61B4D03D7370032E8A19A33BAE
:1051D0000000002E8A19A33BC14920259A837B3900
:1051E00000000000000000006E83F9A22915444E63
:1051F000D15727FCC0DD34F5999562DB4190433CE3
:10520000AB6351FE61C5BBDE3A6E24B7E0D24D42BE
:10521000EA2E49061C92D1091CEB1DFE3EA729B1BE
:10522000F53582E88444BB2E26709CE9417E5FB44C
:1052300039D69139F43953838B5F849C3B28F9BD6F
:10524000FF97F81F0F9805DE8B112FEF1F6D0A5A7D
:10525000CF7E366DB709CB27663F464F2DEA5F9E5E
:10526000C7BA27757BF1E5EBF739073DEA92528A19
:10527000B15FFB6B085D8D1F4630035600000000D8
:10528000A6F810111111813FD561C119A0012ABFE3
:105290007DFEB157E31DC73EEB9C2B8AE6E55ABE67
:1052A0007CD5CF5A3AD9E53D040000000800000043
:1052B00010000000200000004000000080000000FE
:1052C00000010000020406080000000000000000C9
:1052D000010203040607080900000000010203049C
:1052E0000102030406070809E56121BD2EFFA1BDE7
:1052F0004ED1913CDC4683BD9EEF27BDB37B72BC93
:10530000DAACFA3CC286273D006F813C0AD723BC49
:10531000FAED6B3C36CDBB3DC05B203EDC68003E09
:10532000091B9EBC6FF045BE4CA63A3F6FF045BED0
:10533000091B9EBCDC68003EC05B203E36CDBB3DF9
:10534000FAED6B3C0AD723BC006F813CC286273D37
:10535000DAACFA3CB37B72BC9EEF27BDDC4683BD62
:105360004ED1913C2EFFA1BDE56121BDB37BF2BCC6
:105370008FE472BDAC8B5B3C810445BD4850FCBCE6
:10538000C6DC35BCC898BB3C917EFB3CCA54413C52
:105390008FC2F5BB7CF2303C04E78C3DD7A3F03DD7
:1053A00080B7C03D68916DBCAA6014BEA3014C3F9C
:1053B000AA6014BE68916DBC80B7C03DD7A3F03D14
:1053C00004E78C3D7CF2303C8FC2F5BBCA54413CB3
:1053D000917EFB3CC898BB3CC6DC35BC4850FCBC4D
:1053E000810445BDAC8B5B3C8FE472BDB37BF2BCEA
:1053F000E561A1BC9C3322BD4ED1113C6F1203BDAF
:105400009EEFA7BCB37BF2BBDAAC7A3CE71DA73CAE
:10541000006F013C0AD7A3BBFAEDEB3BC8983B3DBC
:10542000C05BA03DDC68803DC0EC1EBC39D6C5BD6C
:105430006D565D3F39D6C5BDC0EC1EBCDC68803DF5
:10544000C05BA03DC8983B3DFAEDEB3B0AD7A3BB40
:10545000006F013CE71DA73CDAAC7A3CB37BF2BBA2
:105460009EEFA7BC6F1203BD4ED1113C9C3322BDF1
:10547000E561A1BC9C3322BC9C33A2BCBC74933BB1
:105480006F1283BC55C128BCB37B72BB6C09F93B5E
:10549000E71D273C24977F3B0AD723BBFAED6B3BE4
:1054A000C898BB3C2E90203D499D003D52499DBB74
:1054B00039D645BD36AB6E3F39D645BD52499DBB49
:1054C000499D003D2E90203DC898BB3CFAED6B3BBA
:1054D0000AD723BB24977F3BE71D273C6C09F93B88
:1054E000B37B72BB55C128BC6F1283BCBC74933BA9
:1054F0009C33A2BC9C3322BC9C33223C9C33A23CF8
:10550000BC7493BB6F12833C55C1283CB37B723B88
:105510006C09F9BBE71D27BC24977FBB0AD7233B47
:10552000FAED6BBBC898BBBC2E9020BD499D00BD59
:1055300052499D3B39D6453D65AA883F39D6453D00
:1055400052499D3B499D00BD2E9020BDC898BBBCD3
:10555000FAED6BBB0AD7233B24977FBBE71D27BC23
:105560006C09F9BBB37B723B55C1283C6F12833C7D
:10557000BC7493BB9C33A23C9C33223CE561A13CB0
:105580009C33223D4ED111BC6F12033D9EEFA73CD0
:10559000B37BF23BDAAC7ABCE71DA7BC006F01BC61
:1055A0000AD7A33BFAEDEBBBC8983BBDC05BA0BDDF
:1055B000DC6880BDC0EC1E3C39D6C53DCA54913F65
:1055C00039D6C53DC0EC1E3CDC6880BDC05BA0BDCB
:1055D000C8983BBDFAEDEBBB0AD7A33B006F01BCFB
:1055E000E71DA7BCDAAC7ABCB37BF23B9EEFA73CCD
:1055F0006F12033D4ED111BC9C33223DE561A13CAD
:10560000B37BF23C8FE4723DAC8B5BBC8104453DC7
:105610004850FC3CC6DC353CC898BBBC917EFBBC0A
:10562000CA5441BC8FC2F53B7CF230BC04E78CBD50
:10563000D7A3F0BD80B7C0BD68916D3CAA60143E91
:105640002EFF993FAA60143E68916D3C80B7C0BDA3
:10565000D7A3F0BD04E78CBD7CF230BC8FC2F53B14
:10566000CA5441BC917EFBBCC898BBBCC6DC353C6F
:105670004850FC3C8104453DAC8B5BBC8FE4723DE3
:10568000B37BF23CE561213D2EFFA13D4ED191BCA3
:10569000DC46833D9EEF273DB37B723CDAACFABC1F
:1056A000C28627BD006F81BC0AD7233CFAED6BBCD4
:1056B00036CDBBBDC05B20BEDC6800BE091B9E3C76
:1056C0006FF0453EDAACA23F6FF0453E091B9E3CB1
:1056D000DC6800BEC05B20BE36CDBBBDFAED6BBC46
:1056E0000AD7233C006F81BCC28627BDDAACFABC66
:1056F000B37B723C9EEF273DDC46833D4ED191BC8F
:105700002EFFA13DE561213DCCEE493D158CCA3D02
:105710007DAEB6BC780BA43DF31F523D075F983CAD
:105720009A771CBD3C4E51BDE561A1BCCDCC4C3C33
:10573000BC7493BC68B3EABDCC7F48BE2E9020BE3B
:105740005D6DC53CFE65773E3F57AB3FFE65773EDE
:105750005D6DC53C2E9020BECC7F48BE68B3EABDCF
:10576000BC7493BCCDCC4C3CE561A1BC3C4E51BD5E
:105770009A771CBD075F983CF31F523D780BA43D00
:105780007DAEB6BC158CCA3DCCEE493DD712723DFC
:10579000FC18F33DF5B9DABC14D0C43D6DE77B3D90
:1057A0007DAEB63CA3013CBDB5157BBD8126C2BC18
:1057B0008FC2753C7CF2B0BCCDCC0CBEA08970BE53
:1057C00080B740BE6891ED3CC66D943EA301B43FE6
:1057D000C66D943E6891ED3C80B740BEA08970BE16
:1057E000CDCC0CBE7CF2B0BC8FC2753C8126C2BC55
:1057F000B5157BBDA3013CBD7DAEB63C6DE77B3DE1
:1058000014D0C43DF5B9DABCFC18F33DD712723D93
:10581000DF4F8D3DBBB80D3E2497FFBCAF94E53DF7
:10582000E10B933DF4FDD43CD1225BBD986E92BD5B
:105830006519E2BC295C8F3C849ECDBC1D5A24BEF8
:10584000D6568CBE9CC460BEDE710A3D8D28AD3E2E
:1058500008ACBC3F8D28AD3EDE710A3D9CC460BEE5
:10586000D6568CBE1D5A24BE849ECDBC295C8F3C6E
:105870006519E2BC986E92BDD1225BBDF4FDD43CAB
:10588000E10B933DAF94E53D2497FFBCBBB80D3EC3
:10589000DF4F8D3DB8580008000000204800000090
:1058A000280100080059000848000020301B0000B3
:1058B000440100080000000000A24A0400000000AB
:1058C0000000001F0000000000001F1F000000007B
:1058D000001F1F1F000000001F1F1F1F0000001FD0
:1058E0001F1F1F1F00001F1F1F1F1F1F001F1F1F25
:1058F0001F1F1F1F1F1F1F1F1F1F1F1F0000000034
:04000005080000ED02
:00000001FF
